:100000000C942A000C9447000C9447000C94470071
:100010000C9447000C9447000C9447000C94470044
:100020000C9447000C9447000C9447000C94470034
:100030000C9447000C9447000C9447000C94470024
:100040000C9447000C9447000C9447000C94470014
:100050000C94470011241FBECFE5D4E0DEBFCDBF16
:1000600010E0A0E6B0E0E8E3F1E002C005900D92F8
:10007000A036B107D9F710E0A0E6B0E001C01D92AC
:10008000A036B107E1F70E9449000C949A000C9445
:1000900000008FEF81BB7FEF28EC30E067EE53EC80
:1000A00041E872BB84EF91E0F9013197F1F70197D4
:1000B000D9F762BB84EF91E0F9013197F1F701972D
:1000C000D9F752BB84EF91E0F9013197F1F701972D
:1000D000D9F742BB88EE93E0F9013197F1F7019728
:1000E000D9F742BB84EF91E0F9013197F1F701971D
:1000F000D9F712BA88EE93E0F9013197F1F7019739
:10010000D9F742BB84EF91E0F9013197F1F70197FC
:10011000D9F752BB84EF91E0F9013197F1F70197DC
:10012000D9F762BB84EF91E0F9013197F1F70197BC
:08013000D9F7B7CFF894FFCF17
:00000001FF
